:0300000002045F98
:0C045F00787FE4F6D8FD7581210204A628
:0B067900187B89496A4C0C790848EF97
:10065000010900011600010A00010801010B010156
:08066000190301130001101E33
:10066900758901758AB0758C3CD2A9D2AFD28C221A
:10060500D292B291D290D2A0B2A1D2A2D2A5B2A6D4
:09061500D2A7D2B7B2B6D2B522C9
:10061E00C290C2A2D292D291D2A0D2A1C2A5C2B78A
:09062E00D2A6D2A7D2B6D2B522A1
:10063700D290D2A2C292D291C2A0D2A1D2A5D2B751
:09064700D2A6C2A7D2B6C2B522A8
:10020400E508B4010612061EE4F508E5136414605B
:10021400030202D1F513E50F150F7002150EE51256
:10022400151270021511E515151570021514E50D5A
:10023400150D7002150CD3E50F9406E50E64809439
:10024400805009C3E50E648094805016D3E512945F
:1002540006E511648094805069C3E511648094803C
:100264004060D3E50F9406E50E64809480500CE55D
:100274000F9403E50E648094805019D3E51294061C
:10028400E511648094805010E5129403E5116480B4
:1002940094804004B290B2A2D3E50F9403E50E64B7
:1002A400809480400302020FE5129403E5116480F8
:1002B4009480400302020FD290D2A2C291C2A10242
:0E02C400020FC290C2A2D291D2A102020F225A
:1002D200E50BB40106120637E4F50BE5136414606E
:1002E2000302039FF513E50F150F7002150EE512B9
:1002F200151270021511E515151570021514E50D8C
:10030200150D7002150CD3E5159406E5146480945E
:10031200805009C3E514648094805016D3E50D948F
:1003220006E50C648094805069C3E514648094806F
:100332004060D3E5159406E51464809480500CE582
:10034200159403E514648094805019D3E50D940646
:10035200E50C648094805010E50D9403E50C6480F4
:1003620094804004B2A7B2B5D3E5159403E51464B2
:1003720080948040030202DDE50D9403E50C648065
:10038200948040030202DDD2A7D2B5C2A6C2B60251
:0E03920002DDC2A7C2B5D2A6D2B60202DD229B
:03000B0002068466
:09068400758C3C758AB005133237
:10000E00AF107E008E0C8F0D8E148F158E118F12E9
:10001E008E0E8F0F12057612066920B2207F057E96
:10002E00001205E7D2B220B2116316FFE516700A70
:10003E00758AB0758C3CD28CF51330B2FD20B1763A
:10004E007F057E001205E7D2B120B1676309FFE597
:10005E0009B40112C28CE4F513758AB0758C3CD2CA
:10006E008C75A0FF804DC28CE4F513758AB0758C2B
:10007E003CD28C750801750B01D3E50F9403E50E88
:10008E00648094805010E5129403E511648094808E
:10009E005004D291D2A1D3E5159403E51464809453
:1000AE00805010E50D9403E50C648094805004D2CA
:1000BE00A6D2B630B1FDE50960030201F3E5166084
:1000CE0003020162E50A7011120204E50F450E707B
:1000DE0017630AFF750801800F1202D2E515451449
:1000EE007006630AFF750B011203A0E50F450E6043
:1000FE0003020028E51245116003020028E51545AC
:10010E00146003020028E50D450C6003020028C2AE
:10011E008C758AB0758C3CF518E4F5171203A005A2
:10012E0017E517C3940A40F475A0FF7FC87E00122E
:10013E0005E70518E518C3940340DEAF107E008E68
:10014E000E8F0F8E118F128E148F158E0C8F0DD267
:10015E008C020028C28C758AB0758C3CE4F513AF06
:10016E0010F50C8F0DF5148F15F5118F12F50E8FEE
:10017E000F1203A020B30F7F057E001205E720B3F8
:10018E0002051030B3FDE50F6464450E701BE512D9
:10019E00646445117013E51564644514700BE50D28
:1001AE006464450C700375100120B40F7F057E004A
:1001BE001205E720B402151030B4FDE50F450E60B0
:1001CE0003020028E51245116003020028E51545DB
:1001DE00146003020028E50D450C6003020028752B
:1001EE001063020028E51364146003020028F5135F
:0601FE00120605020028B4
:1003A000850C20850D21AB15AA14AD12AC11AF0F31
:0203B000AE0E8F
:1003B2008E1A8F1B8C1C8D1D8A1E8B1F1205CCD290
:1003C200A4AE1AAF1B7C007D0A1204EB74792DF5E2
:1003D2008274063CF583E493F580C2A31205E3D24E
:1003E200A3AE1CAF1D1205CCD2A4AE1CAF1D7C0067
:1003F2007D0A1204EB74792DF58274063CF583E4D0
:1004020093F580C2A31205E3D2A3AE1EAF1F12055D
:10041200CCD2A4AE1EAF1F7C007D0A1204EB74790D
:100422002DF58274063CF583E493F580C2A3120590
:10043200E3D2A3AE20AF211205CCD2A4AE20AF21CD
:100442007C007D0A1204EB74792DF58274063CF56A
:0D04520083E493F580C2A31205E3D2A32238
:10057600E4F517900683E493F580C2A4C2A3C29261
:10058600C291C290C2A0C2A1C2A2C2A5C2A6C2A75F
:10059600C2B7C2B6C2B57F2C7E011205E7D292D28F
:1005A60091D290D2A0D2A1D2A2D2A5D2A6D2A7D2BF
:1005B600B7D2B6D2B57F2C7E011205E70517E5172F
:0605C600C3940340AE22C5
:1005CC007C007D0A1204EB74792FF58274063EF5DB
:0B05DC0083E493F580C2A4AF197E00F9
:1005E700D3EF9400EE940040147D6E7C00ED1D70F7
:0D05F700011CED4C70F7EF1F70E61E80E355
:0106040022D3
:10046B0002000EE493A3F8E493A34003F68001F299
:10047B0008DFF48029E493A3F85407240CC8C33392
:10048B00C4540F4420C8834004F456800146F6DF61
:10049B00E4800B0102040810204080900650E47E9B
:1004AB00019360BCA3FF543F30E509541FFEE49356
:1004BB00A360010ECF54C025E060A840B8E493A31D
:1004CB00FAE493A3F8E493A3C8C582C8CAC583CA48
:1004DB00F0A3C8C582C8CAC583CADFE9DEE780BE00
:010668000091
:1004EB00C2D5EC30E709B2D5E4C39DFDE49CFCEE2C
:1004FB0030E715B2D5E4C39FFFE49EFE120521C37E
:10050B00E49DFDE49CFC800312052130D507C3E478
:06051B009FFFE49EFE229A
:10052100BC000BBE0029EF8DF084FFADF022E4CCBE
:10053100F875F008EF2FFFEE33FEEC33FCEE9DEC87
:10054100984005FCEE9DFE0FD5F0E9E4CEFD22EDCD
:10055100F8F5F0EE8420D21CFEADF075F008EF2F17
:10056100FFED33FD4007985006D5F0F222C398FD08
:050571000FD5F0EA22A5
:00000001FF
